{
  "abi": [
    {
      "inputs": [
        {
          "internalType": "int256",
          "name": "a",
          "type": "int256"
        },
        {
          "internalType": "int256",
          "name": "b",
          "type": "int256"
        }
      ],
      "name": "div",
      "outputs": [
        {
          "internalType": "int256",
          "name": "",
          "type": "int256"
        }
      ],
      "stateMutability": "pure",
      "type": "function"
    },
    {
      "inputs": [
        {
          "internalType": "int256",
          "name": "a",
          "type": "int256"
        },
        {
          "internalType": "int256",
          "name": "b",
          "type": "int256"
        }
      ],
      "name": "mul",
      "outputs": [
        {
          "internalType": "int256",
          "name": "",
          "type": "int256"
        }
      ],
      "stateMutability": "pure",
      "type": "function"
    }
  ],
  "bytecode": {
    "object": "0x61019761003a600b82828239805160001a60731461002d57634e487b7160e01b600052600060045260246000fd5b30600052607381538281f3fe73000000000000000000000000000000000000000030146080604052600436106100405760003560e01c80634350913814610045578063bbe93d911461006a575b600080fd5b6100586100533660046100bd565b61007d565b60405190815260200160405180910390f35b6100586100783660046100bd565b6100a7565b6000808261009385670de0b6b3a76400006100f5565b61009d9190610125565b9150505b92915050565b600080670de0b6b3a764000061009384866100f5565b600080604083850312156100d057600080fd5b50508035926020909101359150565b634e487b7160e01b600052601160045260246000fd5b80820260008212600160ff1b84141615610111576101116100df565b81810583148215176100a1576100a16100df565b60008261014257634e487b7160e01b600052601260045260246000fd5b600160ff1b82146000198414161561015c5761015c6100df565b50059056fea26469706673582212201880b9ff6bac98444e71be77025ed9efcf3eb0154387471e254e35309cfe25ae64736f6c63430008110033",
    "linkReferences": {}
  },
  "methodIdentifiers": {
    "div(int256,int256)": "43509138",
    "mul(int256,int256)": "bbe93d91"
  },
  "id": 22
}