{
  "abi": [
    {
      "inputs": [
        {
          "internalType": "uint256",
          "name": "",
          "type": "uint256"
        }
      ],
      "name": "PIDs",
      "outputs": [
        {
          "internalType": "uint256",
          "name": "",
          "type": "uint256"
        }
      ],
      "stateMutability": "view",
      "type": "function"
    },
    {
      "inputs": [
        {
          "internalType": "uint256",
          "name": "",
          "type": "uint256"
        }
      ],
      "name": "Pools",
      "outputs": [
        {
          "internalType": "address",
          "name": "token0",
          "type": "address"
        },
        {
          "internalType": "address",
          "name": "token1",
          "type": "address"
        },
        {
          "internalType": "uint256",
          "name": "amount0",
          "type": "uint256"
        },
        {
          "internalType": "uint256",
          "name": "amount1",
          "type": "uint256"
        }
      ],
      "stateMutability": "view",
      "type": "function"
    },
    {
      "inputs": [
        {
          "internalType": "address",
          "name": "",
          "type": "address"
        }
      ],
      "name": "Positions",
      "outputs": [
        {
          "internalType": "uint256",
          "name": "amount0",
          "type": "uint256"
        },
        {
          "internalType": "uint256",
          "name": "amount1",
          "type": "uint256"
        }
      ],
      "stateMutability": "view",
      "type": "function"
    },
    {
      "inputs": [
        {
          "internalType": "address",
          "name": "token0",
          "type": "address"
        },
        {
          "internalType": "address",
          "name": "token1",
          "type": "address"
        }
      ],
      "name": "createPool",
      "outputs": [
        {
          "internalType": "uint256",
          "name": "",
          "type": "uint256"
        }
      ],
      "stateMutability": "nonpayable",
      "type": "function"
    },
    {
      "inputs": [
        {
          "internalType": "uint256",
          "name": "PID",
          "type": "uint256"
        },
        {
          "internalType": "uint256",
          "name": "amount_token0",
          "type": "uint256"
        },
        {
          "internalType": "uint256",
          "name": "amount_token1",
          "type": "uint256"
        }
      ],
      "name": "deposit",
      "outputs": [],
      "stateMutability": "nonpayable",
      "type": "function"
    },
    {
      "inputs": [
        {
          "internalType": "uint256",
          "name": "PID",
          "type": "uint256"
        },
        {
          "internalType": "address",
          "name": "token0",
          "type": "address"
        }
      ],
      "name": "exchangeRate",
      "outputs": [
        {
          "internalType": "uint256",
          "name": "rate",
          "type": "uint256"
        }
      ],
      "stateMutability": "view",
      "type": "function"
    },
    {
      "inputs": [
        {
          "internalType": "uint256",
          "name": "PID",
          "type": "uint256"
        },
        {
          "internalType": "address",
          "name": "token0",
          "type": "address"
        }
      ],
      "name": "getOtherTokenAddr",
      "outputs": [
        {
          "internalType": "address",
          "name": "token1",
          "type": "address"
        }
      ],
      "stateMutability": "view",
      "type": "function"
    },
    {
      "inputs": [],
      "name": "numberOfPools",
      "outputs": [
        {
          "internalType": "uint256",
          "name": "",
          "type": "uint256"
        }
      ],
      "stateMutability": "view",
      "type": "function"
    },
    {
      "inputs": [
        {
          "internalType": "uint256",
          "name": "PID",
          "type": "uint256"
        },
        {
          "internalType": "address",
          "name": "tokenIn",
          "type": "address"
        },
        {
          "internalType": "uint256",
          "name": "amount",
          "type": "uint256"
        }
      ],
      "name": "swap",
      "outputs": [
        {
          "internalType": "uint256",
          "name": "",
          "type": "uint256"
        }
      ],
      "stateMutability": "nonpayable",
      "type": "function"
    },
    {
      "inputs": [
        {
          "internalType": "uint256",
          "name": "PID",
          "type": "uint256"
        },
        {
          "internalType": "address",
          "name": "token0",
          "type": "address"
        }
      ],
      "name": "totalValueLocked",
      "outputs": [
        {
          "internalType": "int256",
          "name": "rate",
          "type": "int256"
        },
        {
          "internalType": "int256",
          "name": "tvl",
          "type": "int256"
        }
      ],
      "stateMutability": "view",
      "type": "function"
    },
    {
      "inputs": [],
      "name": "withdraw",
      "outputs": [],
      "stateMutability": "nonpayable",
      "type": "function"
    }
  ],
  "bytecode": {
    "object": "0x608060405234801561001057600080fd5b50611159806100206000396000f3fe608060405234801561001057600080fd5b50600436106100a85760003560e01c806373dfccca1161007157806373dfccca1461011b5780638d852db514610188578063b39ac8291461019b578063bf88dd71146101c3578063cd8a8bfc146101ea578063e3433615146101fd57600080fd5b8062aeef8a146100ad5780633ccfd60b146100c057806343264349146100c25780634e71f53a146100e85780636f682a5314610113575b600080fd5b6100c06100bb366004610f0b565b61027c565b005b6100d56100d0366004610f53565b6103c2565b6040519081526020015b60405180910390f35b6100fb6100f6366004610f88565b6107a0565b6040516001600160a01b0390911681526020016100df565b6001546100d5565b61015d610129366004610fb4565b60006020819052908152604090208054600182015460028301546003909301546001600160a01b0392831693919092169184565b604080516001600160a01b0395861681529490931660208501529183015260608201526080016100df565b6100d5610196366004610fb4565b6107f9565b6101ae6101a9366004610f88565b61081a565b604080519283526020830191909152016100df565b6101ae6101d1366004610fcd565b6002602052600090815260409020805460019091015482565b6100d56101f8366004610f88565b610a9a565b6100d561020b366004610fef565b60018054600081815260208190526040812080546001600160a01b039687166001600160a01b03199182161782559084018054959096169416939093179093558054808201825591527fb10e2d527612073b26eecdfd717e6a320cf44b4afac2b0732d9fcbe2b7fa0cf60181905590565b600083815260208190526040902080546001909101546001600160a01b039182169116816102e55760405162461bcd60e51b81526020600482015260116024820152700dcdee840d2dcd2e8d2c2d8d2f4cac840b607b1b60448201526064015b60405180910390fd5b6001600160a01b03811661032f5760405162461bcd60e51b81526020600482015260116024820152706e6f7420696e697469616c697a6564205960781b60448201526064016102dc565b6103446001600160a01b038316333087610c03565b6103596001600160a01b038216333086610c03565b6000858152602081905260408120600201805486929061037a90849061102f565b9091555050600085815260208190526040812060030180548592906103a090849061102f565b9091555050336000908152600260205260409020938455505060019091015550565b6040516323b872dd60e01b8152336004820152306024820152604481018290526000906001600160a01b038416906323b872dd906064016020604051808303816000875af1158015610418573d6000803e3d6000fd5b505050506040513d601f19601f8201168201806040525081019061043c9190611042565b61044557600080fd5b600061045185856107a0565b600086815260208190526040812054919250906001600160a01b038087169116036105ff576000868152602081905260408120600201805486929061049790849061102f565b90915550506000868152602081905260409081902060030154905163bbe93d9160e01b815273__$53269fb03141fdfc093b8e373b3f9db84c$__9163bbe93d91916104ef918891600401918252602082015260400190565b602060405180830381865af415801561050c573d6000803e3d6000fd5b505050506040513d601f19601f820116820180604052508101906105309190611064565b60008781526020819052604090206002015473__$53269fb03141fdfc093b8e373b3f9db84c$__91634350913891610568908861102f565b6040516001600160e01b031960e085901b16815260048101929092526024820152604401602060405180830381865af41580156105a9573d6000803e3d6000fd5b505050506040513d601f19601f820116820180604052508101906105cd9190611064565b90508060008088815260200190815260200160002060030160008282546105f4919061107d565b909155506107839050565b6000868152602081905260408120600301805486929061062090849061102f565b90915550506000868152602081905260409081902060020154905163bbe93d9160e01b815273__$53269fb03141fdfc093b8e373b3f9db84c$__9163bbe93d9191610678918891600401918252602082015260400190565b602060405180830381865af4158015610695573d6000803e3d6000fd5b505050506040513d601f19601f820116820180604052508101906106b99190611064565b60008781526020819052604090206003015473__$53269fb03141fdfc093b8e373b3f9db84c$__916343509138916106f1908861102f565b6040516001600160e01b031960e085901b16815260048101929092526024820152604401602060405180830381865af4158015610732573d6000803e3d6000fd5b505050506040513d601f19601f820116820180604052508101906107569190611064565b905080600080888152602001908152602001600020600201600082825461077d919061107d565b90915550505b6107976001600160a01b0383163383610c74565b95945050505050565b600082815260208190526040812080546001909101546001600160a01b03918216919081169084168290036107d3578092505b806001600160a01b0316846001600160a01b0316036107f0578092505b50505b92915050565b6001818154811061080957600080fd5b600091825260209091200154905081565b60008281526020819052604081205481906001600160a01b0390811690841681900361096b57600085815260208190526040908190206002810154600390910154915163086a122760e31b8152600481018290526024810183905290919073__$53269fb03141fdfc093b8e373b3f9db84c$__90634350913890604401602060405180830381865af41580156108b4573d6000803e3d6000fd5b505050506040513d601f19601f820116820180604052508101906108d89190611064565b60405163bbe93d9160e01b81526004810182905260248101839052909550829073__$53269fb03141fdfc093b8e373b3f9db84c$__9063bbe93d9190604401602060405180830381865af4158015610934573d6000803e3d6000fd5b505050506040513d601f19601f820116820180604052508101906109589190611064565b6109629190611090565b93505050610a92565b600085815260208190526040908190206003810154600290910154915163086a122760e31b8152600481018290526024810183905290919073__$53269fb03141fdfc093b8e373b3f9db84c$__90634350913890604401602060405180830381865af41580156109df573d6000803e3d6000fd5b505050506040513d601f19601f82011682018060405250810190610a039190611064565b60405163bbe93d9160e01b81526004810182905260248101839052909550829073__$53269fb03141fdfc093b8e373b3f9db84c$__9063bbe93d9190604401602060405180830381865af4158015610a5f573d6000803e3d6000fd5b505050506040513d601f19601f82011682018060405250810190610a839190611064565b610a8d9190611090565b935050505b509250929050565b6000828152602081905260408120546001600160a01b03908116908316819003610b5f57600084815260208190526040908190206002810154600390910154915163086a122760e31b8152600481018290526024810183905290919073__$53269fb03141fdfc093b8e373b3f9db84c$__90634350913890604401602060405180830381865af4158015610b32573d6000803e3d6000fd5b505050506040513d601f19601f82011682018060405250810190610b569190611064565b93505050610bfc565b600084815260208190526040908190206003810154600290910154915163086a122760e31b8152600481018290526024810183905290919073__$53269fb03141fdfc093b8e373b3f9db84c$__90634350913890604401602060405180830381865af4158015610bd3573d6000803e3d6000fd5b505050506040513d601f19601f82011682018060405250810190610bf79190611064565b935050505b5092915050565b6040516001600160a01b0380851660248301528316604482015260648101829052610c6e9085906323b872dd60e01b906084015b60408051601f198184030181529190526020810180516001600160e01b03166001600160e01b031990931692909217909152610ca9565b50505050565b6040516001600160a01b038316602482015260448101829052610ca490849063a9059cbb60e01b90606401610c37565b505050565b6000610cfe826040518060400160405280602081526020017f5361666545524332303a206c6f772d6c6576656c2063616c6c206661696c6564815250856001600160a01b0316610d7b9092919063ffffffff16565b805190915015610ca45780806020019051810190610d1c9190611042565b610ca45760405162461bcd60e51b815260206004820152602a60248201527f5361666545524332303a204552433230206f7065726174696f6e20646964206e6044820152691bdd081cdd58d8d9595960b21b60648201526084016102dc565b6060610d8a8484600085610d92565b949350505050565b606082471015610df35760405162461bcd60e51b815260206004820152602660248201527f416464726573733a20696e73756666696369656e742062616c616e636520666f6044820152651c8818d85b1b60d21b60648201526084016102dc565b600080866001600160a01b03168587604051610e0f91906110d4565b60006040518083038185875af1925050503d8060008114610e4c576040519150601f19603f3d011682016040523d82523d6000602084013e610e51565b606091505b5091509150610e6287838387610e6d565b979650505050505050565b60608315610edc578251600003610ed5576001600160a01b0385163b610ed55760405162461bcd60e51b815260206004820152601d60248201527f416464726573733a2063616c6c20746f206e6f6e2d636f6e747261637400000060448201526064016102dc565b5081610d8a565b610d8a8383815115610ef15781518083602001fd5b8060405162461bcd60e51b81526004016102dc91906110f0565b600080600060608486031215610f2057600080fd5b505081359360208301359350604090920135919050565b80356001600160a01b0381168114610f4e57600080fd5b919050565b600080600060608486031215610f6857600080fd5b83359250610f7860208501610f37565b9150604084013590509250925092565b60008060408385031215610f9b57600080fd5b82359150610fab60208401610f37565b90509250929050565b600060208284031215610fc657600080fd5b5035919050565b600060208284031215610fdf57600080fd5b610fe882610f37565b9392505050565b6000806040838503121561100257600080fd5b61100b83610f37565b9150610fab60208401610f37565b634e487b7160e01b600052601160045260246000fd5b808201808211156107f3576107f3611019565b60006020828403121561105457600080fd5b81518015158114610fe857600080fd5b60006020828403121561107657600080fd5b5051919050565b818103818111156107f3576107f3611019565b80820182811260008312801582168215821617156107f0576107f0611019565b60005b838110156110cb5781810151838201526020016110b3565b50506000910152565b600082516110e68184602087016110b0565b9190910192915050565b602081526000825180602084015261110f8160408501602087016110b0565b601f01601f1916919091016040019291505056fea264697066735822122014d0c1f68164bd4d8f56c8f1d3d9e8b2297db2c83ac9cf0740b493d89ac5875664736f6c63430008110033",
    "linkReferences": {
      "src/libraries/math.sol": {
        "SD": [
          {
            "start": 1246,
            "length": 20
          },
          {
            "start": 1380,
            "length": 20
          },
          {
            "start": 1639,
            "length": 20
          },
          {
            "start": 1773,
            "length": 20
          },
          {
            "start": 2202,
            "length": 20
          },
          {
            "start": 2330,
            "length": 20
          },
          {
            "start": 2501,
            "length": 20
          },
          {
            "start": 2629,
            "length": 20
          },
          {
            "start": 2840,
            "length": 20
          },
          {
            "start": 3001,
            "length": 20
          }
        ]
      }
    }
  },
  "methodIdentifiers": {
    "PIDs(uint256)": "8d852db5",
    "Pools(uint256)": "73dfccca",
    "Positions(address)": "bf88dd71",
    "createPool(address,address)": "e3433615",
    "deposit(uint256,uint256,uint256)": "00aeef8a",
    "exchangeRate(uint256,address)": "cd8a8bfc",
    "getOtherTokenAddr(uint256,address)": "4e71f53a",
    "numberOfPools()": "6f682a53",
    "swap(uint256,address,uint256)": "43264349",
    "totalValueLocked(uint256,address)": "b39ac829",
    "withdraw()": "3ccfd60b"
  },
  "id": 21
}