{
  "abi": [
    {
      "inputs": [
        {
          "internalType": "uint256",
          "name": "",
          "type": "uint256"
        }
      ],
      "name": "PIDs",
      "outputs": [
        {
          "internalType": "uint256",
          "name": "",
          "type": "uint256"
        }
      ],
      "stateMutability": "view",
      "type": "function"
    },
    {
      "inputs": [
        {
          "internalType": "uint256",
          "name": "",
          "type": "uint256"
        }
      ],
      "name": "Pools",
      "outputs": [
        {
          "internalType": "address",
          "name": "token0",
          "type": "address"
        },
        {
          "internalType": "address",
          "name": "token1",
          "type": "address"
        },
        {
          "internalType": "uint256",
          "name": "amount0",
          "type": "uint256"
        },
        {
          "internalType": "uint256",
          "name": "amount1",
          "type": "uint256"
        }
      ],
      "stateMutability": "view",
      "type": "function"
    },
    {
      "inputs": [
        {
          "internalType": "address",
          "name": "",
          "type": "address"
        }
      ],
      "name": "Positions",
      "outputs": [
        {
          "internalType": "uint256",
          "name": "amount0",
          "type": "uint256"
        },
        {
          "internalType": "uint256",
          "name": "amount1",
          "type": "uint256"
        }
      ],
      "stateMutability": "view",
      "type": "function"
    },
    {
      "inputs": [
        {
          "internalType": "address",
          "name": "token0",
          "type": "address"
        },
        {
          "internalType": "address",
          "name": "token1",
          "type": "address"
        }
      ],
      "name": "createPool",
      "outputs": [
        {
          "internalType": "uint256",
          "name": "",
          "type": "uint256"
        }
      ],
      "stateMutability": "nonpayable",
      "type": "function"
    },
    {
      "inputs": [
        {
          "internalType": "uint256",
          "name": "PID",
          "type": "uint256"
        },
        {
          "internalType": "uint256",
          "name": "amount_token0",
          "type": "uint256"
        },
        {
          "internalType": "uint256",
          "name": "amount_token1",
          "type": "uint256"
        }
      ],
      "name": "deposit",
      "outputs": [],
      "stateMutability": "nonpayable",
      "type": "function"
    },
    {
      "inputs": [
        {
          "internalType": "uint256",
          "name": "PID",
          "type": "uint256"
        },
        {
          "internalType": "address",
          "name": "token0",
          "type": "address"
        }
      ],
      "name": "exchangeRate",
      "outputs": [
        {
          "internalType": "uint256",
          "name": "rate",
          "type": "uint256"
        }
      ],
      "stateMutability": "view",
      "type": "function"
    },
    {
      "inputs": [
        {
          "internalType": "uint256",
          "name": "PID",
          "type": "uint256"
        },
        {
          "internalType": "address",
          "name": "token0",
          "type": "address"
        }
      ],
      "name": "getOtherTokenAddr",
      "outputs": [
        {
          "internalType": "address",
          "name": "token1",
          "type": "address"
        }
      ],
      "stateMutability": "view",
      "type": "function"
    },
    {
      "inputs": [],
      "name": "numberOfPools",
      "outputs": [
        {
          "internalType": "uint256",
          "name": "",
          "type": "uint256"
        }
      ],
      "stateMutability": "view",
      "type": "function"
    },
    {
      "inputs": [
        {
          "internalType": "uint256",
          "name": "PID",
          "type": "uint256"
        },
        {
          "internalType": "address",
          "name": "tokenIn",
          "type": "address"
        },
        {
          "internalType": "uint256",
          "name": "amount",
          "type": "uint256"
        }
      ],
      "name": "swap",
      "outputs": [
        {
          "internalType": "uint256",
          "name": "",
          "type": "uint256"
        }
      ],
      "stateMutability": "nonpayable",
      "type": "function"
    },
    {
      "inputs": [
        {
          "internalType": "uint256",
          "name": "PID",
          "type": "uint256"
        },
        {
          "internalType": "address",
          "name": "token0",
          "type": "address"
        }
      ],
      "name": "totalValueLocked",
      "outputs": [
        {
          "internalType": "int256",
          "name": "rate",
          "type": "int256"
        },
        {
          "internalType": "int256",
          "name": "tvl",
          "type": "int256"
        }
      ],
      "stateMutability": "view",
      "type": "function"
    }
  ],
  "bytecode": {
    "object": "0x608060405234801561001057600080fd5b50610efe806100206000396000f3fe608060405234801561001057600080fd5b506004361061009d5760003560e01c80638d852db5116100665780638d852db51461017d578063b39ac82914610190578063bf88dd71146101b8578063cd8a8bfc146101df578063e3433615146101f257600080fd5b8062aeef8a146100a257806343264349146100b75780634e71f53a146100dd5780636f682a531461010857806373dfccca14610110575b600080fd5b6100b56100b0366004610d23565b610273565b005b6100ca6100c5366004610d6b565b610484565b6040519081526020015b60405180910390f35b6100f06100eb366004610da0565b6108c0565b6040516001600160a01b0390911681526020016100d4565b6002546100ca565b61015261011e366004610dcc565b60006020819052908152604090208054600182015460028301546003909301546001600160a01b0392831693919092169184565b604080516001600160a01b0395861681529490931660208501529183015260608201526080016100d4565b6100ca61018b366004610dcc565b610919565b6101a361019e366004610da0565b61093a565b604080519283526020830191909152016100d4565b6101a36101c6366004610de5565b6001602081905260009182526040909120805491015482565b6100ca6101ed366004610da0565b610bba565b6100ca610200366004610e07565b60028054600081815260208190526040812080546001600160a01b039687166001600160a01b031991821617825560019182018054969097169516949094179094558154928301825592527f405787fa12a823e0f2b7631cc41b3ba8828b3321ca811111fa75cd3aa3bb5ace0181905590565b600083815260208190526040902080546001909101546001600160a01b039182169116816102dc5760405162461bcd60e51b81526020600482015260116024820152700dcdee840d2dcd2e8d2c2d8d2f4cac840b607b1b60448201526064015b60405180910390fd5b6001600160a01b0381166103265760405162461bcd60e51b81526020600482015260116024820152706e6f7420696e697469616c697a6564205960781b60448201526064016102d3565b6040516323b872dd60e01b8152336004820152306024820152604481018590526001600160a01b038316906323b872dd906064016020604051808303816000875af1158015610379573d6000803e3d6000fd5b505050506040513d601f19601f8201168201806040525081019061039d9190610e31565b506040516323b872dd60e01b8152336004820152306024820152604481018490526001600160a01b038216906323b872dd906064016020604051808303816000875af11580156103f1573d6000803e3d6000fd5b505050506040513d601f19601f820116820180604052508101906104159190610e31565b5060008581526020819052604081206002018054869290610437908490610e69565b90915550506000858152602081905260408120600301805485929061045d908490610e69565b90915550503360009081526001602081905260409091209485559390930191909155505050565b6040516323b872dd60e01b8152336004820152306024820152604481018290526000906001600160a01b038416906323b872dd906064016020604051808303816000875af11580156104da573d6000803e3d6000fd5b505050506040513d601f19601f820116820180604052508101906104fe9190610e31565b61050757600080fd5b600061051385856108c0565b600086815260208190526040812054919250906001600160a01b038087169116036106c15760008681526020819052604081206002018054869290610559908490610e69565b90915550506000868152602081905260409081902060030154905163bbe93d9160e01b815273__$53269fb03141fdfc093b8e373b3f9db84c$__9163bbe93d91916105b1918891600401918252602082015260400190565b602060405180830381865af41580156105ce573d6000803e3d6000fd5b505050506040513d601f19601f820116820180604052508101906105f29190610e7c565b60008781526020819052604090206002015473__$53269fb03141fdfc093b8e373b3f9db84c$__9163435091389161062a9088610e69565b6040516001600160e01b031960e085901b16815260048101929092526024820152604401602060405180830381865af415801561066b573d6000803e3d6000fd5b505050506040513d601f19601f8201168201806040525081019061068f9190610e7c565b90508060008088815260200190815260200160002060030160008282546106b69190610e95565b909155506108459050565b600086815260208190526040812060030180548692906106e2908490610e69565b90915550506000868152602081905260409081902060020154905163bbe93d9160e01b815273__$53269fb03141fdfc093b8e373b3f9db84c$__9163bbe93d919161073a918891600401918252602082015260400190565b602060405180830381865af4158015610757573d6000803e3d6000fd5b505050506040513d601f19601f8201168201806040525081019061077b9190610e7c565b60008781526020819052604090206003015473__$53269fb03141fdfc093b8e373b3f9db84c$__916343509138916107b39088610e69565b6040516001600160e01b031960e085901b16815260048101929092526024820152604401602060405180830381865af41580156107f4573d6000803e3d6000fd5b505050506040513d601f19601f820116820180604052508101906108189190610e7c565b905080600080888152602001908152602001600020600201600082825461083f9190610e95565b90915550505b60405163a9059cbb60e01b8152336004820152602481018290526001600160a01b0383169063a9059cbb906044016020604051808303816000875af1158015610892573d6000803e3d6000fd5b505050506040513d601f19601f820116820180604052508101906108b69190610e31565b5095945050505050565b600082815260208190526040812080546001909101546001600160a01b03918216919081169084168290036108f3578092505b806001600160a01b0316846001600160a01b031603610910578092505b50505b92915050565b6002818154811061092957600080fd5b600091825260209091200154905081565b60008281526020819052604081205481906001600160a01b03908116908416819003610a8b57600085815260208190526040908190206002810154600390910154915163086a122760e31b8152600481018290526024810183905290919073__$53269fb03141fdfc093b8e373b3f9db84c$__90634350913890604401602060405180830381865af41580156109d4573d6000803e3d6000fd5b505050506040513d601f19601f820116820180604052508101906109f89190610e7c565b60405163bbe93d9160e01b81526004810182905260248101839052909550829073__$53269fb03141fdfc093b8e373b3f9db84c$__9063bbe93d9190604401602060405180830381865af4158015610a54573d6000803e3d6000fd5b505050506040513d601f19601f82011682018060405250810190610a789190610e7c565b610a829190610ea8565b93505050610bb2565b600085815260208190526040908190206003810154600290910154915163086a122760e31b8152600481018290526024810183905290919073__$53269fb03141fdfc093b8e373b3f9db84c$__90634350913890604401602060405180830381865af4158015610aff573d6000803e3d6000fd5b505050506040513d601f19601f82011682018060405250810190610b239190610e7c565b60405163bbe93d9160e01b81526004810182905260248101839052909550829073__$53269fb03141fdfc093b8e373b3f9db84c$__9063bbe93d9190604401602060405180830381865af4158015610b7f573d6000803e3d6000fd5b505050506040513d601f19601f82011682018060405250810190610ba39190610e7c565b610bad9190610ea8565b935050505b509250929050565b6000828152602081905260408120546001600160a01b03908116908316819003610c7f57600084815260208190526040908190206002810154600390910154915163086a122760e31b8152600481018290526024810183905290919073__$53269fb03141fdfc093b8e373b3f9db84c$__90634350913890604401602060405180830381865af4158015610c52573d6000803e3d6000fd5b505050506040513d601f19601f82011682018060405250810190610c769190610e7c565b93505050610d1c565b600084815260208190526040908190206003810154600290910154915163086a122760e31b8152600481018290526024810183905290919073__$53269fb03141fdfc093b8e373b3f9db84c$__90634350913890604401602060405180830381865af4158015610cf3573d6000803e3d6000fd5b505050506040513d601f19601f82011682018060405250810190610d179190610e7c565b935050505b5092915050565b600080600060608486031215610d3857600080fd5b505081359360208301359350604090920135919050565b80356001600160a01b0381168114610d6657600080fd5b919050565b600080600060608486031215610d8057600080fd5b83359250610d9060208501610d4f565b9150604084013590509250925092565b60008060408385031215610db357600080fd5b82359150610dc360208401610d4f565b90509250929050565b600060208284031215610dde57600080fd5b5035919050565b600060208284031215610df757600080fd5b610e0082610d4f565b9392505050565b60008060408385031215610e1a57600080fd5b610e2383610d4f565b9150610dc360208401610d4f565b600060208284031215610e4357600080fd5b81518015158114610e0057600080fd5b634e487b7160e01b600052601160045260246000fd5b8082018082111561091357610913610e53565b600060208284031215610e8e57600080fd5b5051919050565b8181038181111561091357610913610e53565b808201828112600083128015821682158216171561091057610910610e5356fea26469706673582212209c22a9634f5229285a2326021958ea4e668e15b4917aa8327f308cc78d948d3e64736f6c63430008110033",
    "linkReferences": {
      "src/libraries/math.sol": {
        "SD": [
          {
            "start": 1440,
            "length": 20
          },
          {
            "start": 1574,
            "length": 20
          },
          {
            "start": 1833,
            "length": 20
          },
          {
            "start": 1967,
            "length": 20
          },
          {
            "start": 2490,
            "length": 20
          },
          {
            "start": 2618,
            "length": 20
          },
          {
            "start": 2789,
            "length": 20
          },
          {
            "start": 2917,
            "length": 20
          },
          {
            "start": 3128,
            "length": 20
          },
          {
            "start": 3289,
            "length": 20
          }
        ]
      }
    }
  },
  "methodIdentifiers": {
    "PIDs(uint256)": "8d852db5",
    "Pools(uint256)": "73dfccca",
    "Positions(address)": "bf88dd71",
    "createPool(address,address)": "e3433615",
    "deposit(uint256,uint256,uint256)": "00aeef8a",
    "exchangeRate(uint256,address)": "cd8a8bfc",
    "getOtherTokenAddr(uint256,address)": "4e71f53a",
    "numberOfPools()": "6f682a53",
    "swap(uint256,address,uint256)": "43264349",
    "totalValueLocked(uint256,address)": "b39ac829"
  },
  "id": 21
}