{
  "abi": [
    {
      "inputs": [
        {
          "internalType": "uint256",
          "name": "PID",
          "type": "uint256"
        },
        {
          "internalType": "address",
          "name": "token0",
          "type": "address"
        }
      ],
      "name": "ExchangeRate",
      "outputs": [
        {
          "internalType": "int256",
          "name": "rate",
          "type": "int256"
        }
      ],
      "stateMutability": "view",
      "type": "function"
    },
    {
      "inputs": [
        {
          "internalType": "uint256",
          "name": "",
          "type": "uint256"
        }
      ],
      "name": "PIDs",
      "outputs": [
        {
          "internalType": "uint256",
          "name": "",
          "type": "uint256"
        }
      ],
      "stateMutability": "view",
      "type": "function"
    },
    {
      "inputs": [
        {
          "internalType": "uint256",
          "name": "",
          "type": "uint256"
        }
      ],
      "name": "Pools",
      "outputs": [
        {
          "internalType": "address",
          "name": "token0",
          "type": "address"
        },
        {
          "internalType": "address",
          "name": "token1",
          "type": "address"
        },
        {
          "internalType": "uint256",
          "name": "amount0",
          "type": "uint256"
        },
        {
          "internalType": "uint256",
          "name": "amount1",
          "type": "uint256"
        }
      ],
      "stateMutability": "view",
      "type": "function"
    },
    {
      "inputs": [
        {
          "internalType": "address",
          "name": "",
          "type": "address"
        }
      ],
      "name": "Positions",
      "outputs": [
        {
          "internalType": "uint256",
          "name": "amount0",
          "type": "uint256"
        },
        {
          "internalType": "uint256",
          "name": "amount1",
          "type": "uint256"
        }
      ],
      "stateMutability": "view",
      "type": "function"
    },
    {
      "inputs": [
        {
          "internalType": "uint256",
          "name": "PID",
          "type": "uint256"
        },
        {
          "internalType": "address",
          "name": "tokenIn",
          "type": "address"
        },
        {
          "internalType": "uint256",
          "name": "amount",
          "type": "uint256"
        }
      ],
      "name": "Swap",
      "outputs": [
        {
          "internalType": "uint256",
          "name": "",
          "type": "uint256"
        }
      ],
      "stateMutability": "nonpayable",
      "type": "function"
    },
    {
      "inputs": [
        {
          "internalType": "uint256",
          "name": "PID",
          "type": "uint256"
        },
        {
          "internalType": "address",
          "name": "token0",
          "type": "address"
        }
      ],
      "name": "TVL",
      "outputs": [
        {
          "internalType": "int256",
          "name": "rate",
          "type": "int256"
        },
        {
          "internalType": "int256",
          "name": "tvl",
          "type": "int256"
        }
      ],
      "stateMutability": "view",
      "type": "function"
    },
    {
      "inputs": [
        {
          "internalType": "address",
          "name": "token0",
          "type": "address"
        },
        {
          "internalType": "address",
          "name": "token1",
          "type": "address"
        }
      ],
      "name": "createPool",
      "outputs": [
        {
          "internalType": "uint256",
          "name": "",
          "type": "uint256"
        }
      ],
      "stateMutability": "nonpayable",
      "type": "function"
    },
    {
      "inputs": [
        {
          "internalType": "uint256",
          "name": "PID",
          "type": "uint256"
        },
        {
          "internalType": "uint256",
          "name": "amount_token0",
          "type": "uint256"
        },
        {
          "internalType": "uint256",
          "name": "amount_token1",
          "type": "uint256"
        }
      ],
      "name": "deposit",
      "outputs": [],
      "stateMutability": "nonpayable",
      "type": "function"
    },
    {
      "inputs": [
        {
          "internalType": "uint256",
          "name": "PID",
          "type": "uint256"
        },
        {
          "internalType": "address",
          "name": "token0",
          "type": "address"
        }
      ],
      "name": "getOtherTokenAddr",
      "outputs": [
        {
          "internalType": "address",
          "name": "token1",
          "type": "address"
        }
      ],
      "stateMutability": "view",
      "type": "function"
    },
    {
      "inputs": [],
      "name": "numberOfPools",
      "outputs": [
        {
          "internalType": "uint256",
          "name": "",
          "type": "uint256"
        }
      ],
      "stateMutability": "view",
      "type": "function"
    }
  ],
  "bytecode": {
    "object": "0x608060405234801561001057600080fd5b50610efe806100206000396000f3fe608060405234801561001057600080fd5b506004361061009d5760003560e01c80636f682a53116100665780636f682a531461014357806373dfccca1461014b5780638d852db5146101b8578063bf88dd71146101cb578063e3433615146101f257600080fd5b8062aeef8a146100a257806345cd72b7146100b757806348b43f13146100dd5780634e71f53a146100f05780636767aeed1461011b575b600080fd5b6100b56100b0366004610d23565b610273565b005b6100ca6100c5366004610d6b565b610484565b6040519081526020015b60405180910390f35b6100ca6100eb366004610d97565b6105ee565b6101036100fe366004610d6b565b610a2a565b6040516001600160a01b0390911681526020016100d4565b61012e610129366004610d6b565b610a82565b604080519283526020830191909152016100d4565b6002546100ca565b61018d610159366004610dcc565b60006020819052908152604090208054600182015460028301546003909301546001600160a01b0392831693919092169184565b604080516001600160a01b0395861681529490931660208501529183015260608201526080016100d4565b6100ca6101c6366004610dcc565b610d02565b61012e6101d9366004610de5565b6001602081905260009182526040909120805491015482565b6100ca610200366004610e07565b60028054600081815260208190526040812080546001600160a01b039687166001600160a01b031991821617825560019182018054969097169516949094179094558154928301825592527f405787fa12a823e0f2b7631cc41b3ba8828b3321ca811111fa75cd3aa3bb5ace0181905590565b600083815260208190526040902080546001909101546001600160a01b039182169116816102dc5760405162461bcd60e51b81526020600482015260116024820152700dcdee840d2dcd2e8d2c2d8d2f4cac840b607b1b60448201526064015b60405180910390fd5b6001600160a01b0381166103265760405162461bcd60e51b81526020600482015260116024820152706e6f7420696e697469616c697a6564205960781b60448201526064016102d3565b6040516323b872dd60e01b8152336004820152306024820152604481018590526001600160a01b038316906323b872dd906064016020604051808303816000875af1158015610379573d6000803e3d6000fd5b505050506040513d601f19601f8201168201806040525081019061039d9190610e31565b506040516323b872dd60e01b8152336004820152306024820152604481018490526001600160a01b038216906323b872dd906064016020604051808303816000875af11580156103f1573d6000803e3d6000fd5b505050506040513d601f19601f820116820180604052508101906104159190610e31565b5060008581526020819052604081206002018054869290610437908490610e69565b90915550506000858152602081905260408120600301805485929061045d908490610e69565b90915550503360009081526001602081905260409091209485559390930191909155505050565b6000828152602081905260408120546001600160a01b0390811690831681900361054957600084815260208190526040908190206002810154600390910154915163086a122760e31b8152600481018290526024810183905290919073__$9a472676413c6ccb951fc58f9693137b9b$__90634350913890604401602060405180830381865af415801561051c573d6000803e3d6000fd5b505050506040513d601f19601f820116820180604052508101906105409190610e7c565b935050506105e6565b600084815260208190526040908190206003810154600290910154915163086a122760e31b8152600481018290526024810183905290919073__$9a472676413c6ccb951fc58f9693137b9b$__90634350913890604401602060405180830381865af41580156105bd573d6000803e3d6000fd5b505050506040513d601f19601f820116820180604052508101906105e19190610e7c565b935050505b505b92915050565b6040516323b872dd60e01b8152336004820152306024820152604481018290526000906001600160a01b038416906323b872dd906064016020604051808303816000875af1158015610644573d6000803e3d6000fd5b505050506040513d601f19601f820116820180604052508101906106689190610e31565b61067157600080fd5b600061067d8585610a2a565b600086815260208190526040812054919250906001600160a01b0380871691160361082b57600086815260208190526040812060020180548692906106c3908490610e69565b90915550506000868152602081905260409081902060030154905163bbe93d9160e01b815273__$9a472676413c6ccb951fc58f9693137b9b$__9163bbe93d919161071b918891600401918252602082015260400190565b602060405180830381865af4158015610738573d6000803e3d6000fd5b505050506040513d601f19601f8201168201806040525081019061075c9190610e7c565b60008781526020819052604090206002015473__$9a472676413c6ccb951fc58f9693137b9b$__916343509138916107949088610e69565b6040516001600160e01b031960e085901b16815260048101929092526024820152604401602060405180830381865af41580156107d5573d6000803e3d6000fd5b505050506040513d601f19601f820116820180604052508101906107f99190610e7c565b90508060008088815260200190815260200160002060030160008282546108209190610e95565b909155506109af9050565b6000868152602081905260408120600301805486929061084c908490610e69565b90915550506000868152602081905260409081902060020154905163bbe93d9160e01b815273__$9a472676413c6ccb951fc58f9693137b9b$__9163bbe93d91916108a4918891600401918252602082015260400190565b602060405180830381865af41580156108c1573d6000803e3d6000fd5b505050506040513d601f19601f820116820180604052508101906108e59190610e7c565b60008781526020819052604090206003015473__$9a472676413c6ccb951fc58f9693137b9b$__9163435091389161091d9088610e69565b6040516001600160e01b031960e085901b16815260048101929092526024820152604401602060405180830381865af415801561095e573d6000803e3d6000fd5b505050506040513d601f19601f820116820180604052508101906109829190610e7c565b90508060008088815260200190815260200160002060020160008282546109a99190610e95565b90915550505b60405163a9059cbb60e01b8152336004820152602481018290526001600160a01b0383169063a9059cbb906044016020604051808303816000875af11580156109fc573d6000803e3d6000fd5b505050506040513d601f19601f82011682018060405250810190610a209190610e31565b5095945050505050565b600082815260208190526040812080546001909101546001600160a01b0391821691908116908416829003610a5d578092505b806001600160a01b0316846001600160a01b031603610a7a578092505b505092915050565b60008281526020819052604081205481906001600160a01b03908116908416819003610bd357600085815260208190526040908190206002810154600390910154915163086a122760e31b8152600481018290526024810183905290919073__$9a472676413c6ccb951fc58f9693137b9b$__90634350913890604401602060405180830381865af4158015610b1c573d6000803e3d6000fd5b505050506040513d601f19601f82011682018060405250810190610b409190610e7c565b60405163bbe93d9160e01b81526004810182905260248101839052909550829073__$9a472676413c6ccb951fc58f9693137b9b$__9063bbe93d9190604401602060405180830381865af4158015610b9c573d6000803e3d6000fd5b505050506040513d601f19601f82011682018060405250810190610bc09190610e7c565b610bca9190610ea8565b93505050610cfa565b600085815260208190526040908190206003810154600290910154915163086a122760e31b8152600481018290526024810183905290919073__$9a472676413c6ccb951fc58f9693137b9b$__90634350913890604401602060405180830381865af4158015610c47573d6000803e3d6000fd5b505050506040513d601f19601f82011682018060405250810190610c6b9190610e7c565b60405163bbe93d9160e01b81526004810182905260248101839052909550829073__$9a472676413c6ccb951fc58f9693137b9b$__9063bbe93d9190604401602060405180830381865af4158015610cc7573d6000803e3d6000fd5b505050506040513d601f19601f82011682018060405250810190610ceb9190610e7c565b610cf59190610ea8565b935050505b509250929050565b60028181548110610d1257600080fd5b600091825260209091200154905081565b600080600060608486031215610d3857600080fd5b505081359360208301359350604090920135919050565b80356001600160a01b0381168114610d6657600080fd5b919050565b60008060408385031215610d7e57600080fd5b82359150610d8e60208401610d4f565b90509250929050565b600080600060608486031215610dac57600080fd5b83359250610dbc60208501610d4f565b9150604084013590509250925092565b600060208284031215610dde57600080fd5b5035919050565b600060208284031215610df757600080fd5b610e0082610d4f565b9392505050565b60008060408385031215610e1a57600080fd5b610e2383610d4f565b9150610d8e60208401610d4f565b600060208284031215610e4357600080fd5b81518015158114610e0057600080fd5b634e487b7160e01b600052601160045260246000fd5b808201808211156105e8576105e8610e53565b600060208284031215610e8e57600080fd5b5051919050565b818103818111156105e8576105e8610e53565b8082018281126000831280158216821582161715610a7a57610a7a610e5356fea264697066735822122050ce6d513de79ee6ff57158ac8438a2885c41a0610f8198561e2f70aadff089364736f6c63430008110033",
    "linkReferences": {
      "src/math.sol": {
        "SD": [
          {
            "start": 1282,
            "length": 20
          },
          {
            "start": 1443,
            "length": 20
          },
          {
            "start": 1802,
            "length": 20
          },
          {
            "start": 1936,
            "length": 20
          },
          {
            "start": 2195,
            "length": 20
          },
          {
            "start": 2329,
            "length": 20
          },
          {
            "start": 2818,
            "length": 20
          },
          {
            "start": 2946,
            "length": 20
          },
          {
            "start": 3117,
            "length": 20
          },
          {
            "start": 3245,
            "length": 20
          }
        ]
      }
    }
  },
  "methodIdentifiers": {
    "ExchangeRate(uint256,address)": "45cd72b7",
    "PIDs(uint256)": "8d852db5",
    "Pools(uint256)": "73dfccca",
    "Positions(address)": "bf88dd71",
    "Swap(uint256,address,uint256)": "48b43f13",
    "TVL(uint256,address)": "6767aeed",
    "createPool(address,address)": "e3433615",
    "deposit(uint256,uint256,uint256)": "00aeef8a",
    "getOtherTokenAddr(uint256,address)": "4e71f53a",
    "numberOfPools()": "6f682a53"
  },
  "id": 21
}